:0400000090004137F4
:04000100FC010113EA
:04000200FF410113A6
:0400030000A1202315
:0400040000B1222302
:04000500005124235F
:04000600008005135E
:0400070000B00293B0
:04000800004445B7B4
:040009000055D5B316
:04000A003005157335
:04000B00304595F3F4
:04000C0000012503C7
:04000D000041258306
:04000E0000812283C8
:04000F0000C1011318
:04001000000F0537A1
:0400110000150513BE
:04001200100134376E
:0400130000A4202302
:0400140000000013D5
:04001500FFDFF06FAA
:0400160000000013D3
:0400170000000013D2
:0400180000000013D1
:0400190000000013D0
:04001A0000000013CF
:04001B0000000013CE
:04001C0000000013CD
:04001D0000000013CC
:04001E0000000013CB
:04001F0000000013CA
:0400200000000013C9
:0400210000000013C8
:0400220000000013C7
:0400230000000013C6
:0400240000000013C5
:0400250000000013C4
:0400260000000013C3
:0400270000000013C2
:0400280000000013C1
:0400290000000013C0
:04002A0000000013BF
:04002B0000000013BE
:04002C0000000013BD
:04002D0000000013BC
:04002E0000000013BB
:04002F0000000013BA
:0400300000000013B9
:0400310000000013B8
:0400320000000013B7
:0400330000000013B6
:0400340000000013B5
:0400350000000013B4
:0400360000000013B3
:0400370000000013B2
:0400380000000013B1
:0400390000000013B0
:04003A0000000013AF
:04003B0000000013AE
:04003C0000000013AD
:04003D0000000013AC
:04003E0000000013AB
:04003F0000000013AA
:0400400000000013A9
:0400410000000013A8
:0400420000000013A7
:0400430000000013A6
:0400440000000013A5
:0400450000000013A4
:0400460000000013A3
:0400470000000013A2
:0400480000000013A1
:0400490000000013A0
:04004A00000000139F
:04004B00000000139E
:04004C00000000139D
:04004D00000000139C
:04004E00000000139B
:04004F00000000139A
:040050000000001399
:040051000000001398
:040052000000001397
:040053000000001396
:040054000000001395
:040055000000001394
:040056000000001393
:040057000000001392
:040058000000001391
:040059000000001390
:04005A00000000138F
:04005B00000000138E
:04005C00000000138D
:04005D00000000138C
:04005E00000000138B
:04005F00000000138A
:040060000000001389
:040061000000001388
:040062000000001387
:040063000000001386
:040064000000001385
:040065000000001384
:040066000000001383
:040067000000001382
:040068000000001381
:040069000000001380
:04006A00000000137F
:04006B00000000137E
:04006C00000000137D
:04006D00000000137C
:04006E00000000137B
:04006F00000000137A
:040070000000001379
:040071000000001378
:040072000000001377
:040073000000001376
:040074000000001375
:040075000000001374
:040076000000001373
:040077000000001372
:040078000000001371
:040079000000001370
:04007A00000000136F
:04007B00000000136E
:04007C00000000136D
:04007D00000000136C
:04007E00000000136B
:04007F00000000136A
:040080000000001369
:040081000000001368
:040082000000001367
:040083000000001366
:040084000000001365
:040085000000001364
:040086000000001363
:040087000000001362
:040088000000001361
:040089000000001360
:04008A00000000135F
:04008B00000000135E
:04008C00000000135D
:04008D00000000135C
:04008E00000000135B
:04008F00000000135A
:040090000000001359
:040091000000001358
:040092000000001357
:040093000000001356
:040094000000001355
:040095000000001354
:040096000000001353
:040097000000001352
:040098000000001351
:040099000000001350
:04009A00000000134F
:04009B00000000134E
:04009C00000000134D
:04009D00000000134C
:04009E00000000134B
:04009F00000000134A
:0400A0000000001349
:0400A1000000001348
:0400A2000000001347
:0400A3000000001346
:0400A4000000001345
:0400A5000000001344
:0400A6000000001343
:0400A7000000001342
:0400A8000000001341
:0400A9000000001340
:0400AA00000000133F
:0400AB00000000133E
:0400AC00000000133D
:0400AD00000000133C
:0400AE00000000133B
:0400AF00000000133A
:0400B0000000001339
:0400B1000000001338
:0400B2000000001337
:0400B3000000001336
:0400B4000000001335
:0400B5000000001334
:0400B6000000001333
:0400B7000000001332
:0400B8000000001331
:0400B9000000001330
:0400BA00000000132F
:0400BB00000000132E
:0400BC00000000132D
:0400BD00000000132C
:0400BE00000000132B
:0400BF00000000132A
:0400C0000000001329
:0400C1000000001328
:0400C2000000001327
:0400C3000000001326
:0400C4000000001325
:0400C5000000001324
:0400C6000000001323
:0400C7000000001322
:0400C8000000001321
:0400C9000000001320
:0400CA00000000131F
:0400CB00000000131E
:0400CC00000000131D
:0400CD00000000131C
:0400CE00000000131B
:0400CF00000000131A
:0400D0000000001319
:0400D1000000001318
:0400D2000000001317
:0400D3000000001316
:0400D4000000001315
:0400D5000000001314
:0400D6000000001313
:0400D7000000001312
:0400D8000000001311
:0400D9000000001310
:0400DA00000000130F
:0400DB00000000130E
:0400DC00000000130D
:0400DD00000000130C
:0400DE00000000130B
:0400DF00000000130A
:0400E0000000001309
:0400E1000000001308
:0400E2000000001307
:0400E3000000001306
:0400E4000000001305
:0400E5000000001304
:0400E6000000001303
:0400E7000000001302
:0400E8000000001301
:0400E9000000001300
:0400EA0000000013FF
:0400EB0000000013FE
:0400EC0000000013FD
:0400ED0000000013FC
:0400EE0000000013FB
:0400EF0000000013FA
:0400F00000000013F9
:0400F10000000013F8
:0400F20000000013F7
:0400F30000000013F6
:0400F40000000013F5
:0400F50000000013F4
:0400F60000000013F3
:0400F70000000013F2
:0400F80000000013F1
:0400F90000000013F0
:0400FA0000000013EF
:0400FB0000000013EE
:0400FC0000000013ED
:0400FD0000000013EC
:0400FE0000000013EB
:0400FF0000000013EA
:0401000000000013E8
:0401010000000013E7
:0401020000000013E6
:0401030000000013E5
:0401040000000013E4
:0401050000000013E3
:0401060000000013E2
:0401070000000013E1
:0401080000000013E0
:0401090000000013DF
:04010A0000000013DE
:04010B0000000013DD
:04010C0000000013DC
:04010D0000000013DB
:04010E0000000013DA
:04010F0000000013D9
:0401100000000013D8
:0401110000000013D7
:0401120000000013D6
:0401130000000013D5
:0401140000000013D4
:0401150000000013D3
:0401160000000013D2
:0401170000000013D1
:0401180000000013D0
:0401190000000013CF
:04011A0000000013CE
:04011B0000000013CD
:04011C0000000013CC
:04011D0000000013CB
:04011E0000000013CA
:04011F0000000013C9
:0401200000000013C8
:0401210000000013C7
:0401220000000013C6
:0401230000000013C5
:0401240000000013C4
:0401250000000013C3
:0401260000000013C2
:0401270000000013C1
:0401280000000013C0
:0401290000000013BF
:04012A0000000013BE
:04012B0000000013BD
:04012C0000000013BC
:04012D0000000013BB
:04012E0000000013BA
:04012F0000000013B9
:0401300000000013B8
:0401310000000013B7
:0401320000000013B6
:0401330000000013B5
:0401340000000013B4
:0401350000000013B3
:0401360000000013B2
:0401370000000013B1
:0401380000000013B0
:0401390000000013AF
:04013A0000000013AE
:04013B0000000013AD
:04013C0000000013AC
:04013D0000000013AB
:04013E0000000013AA
:04013F0000000013A9
:0401400000000013A8
:0401410000000013A7
:0401420000000013A6
:0401430000000013A5
:0401440000000013A4
:0401450000000013A3
:0401460000000013A2
:0401470000000013A1
:0401480000000013A0
:04014900000000139F
:04014A00000000139E
:04014B00000000139D
:04014C00000000139C
:04014D00000000139B
:04014E00000000139A
:04014F000000001399
:040150000000001398
:040151000000001397
:040152000000001396
:040153000000001395
:040154000000001394
:040155000000001393
:040156000000001392
:040157000000001391
:040158000000001390
:04015900000000138F
:04015A00000000138E
:04015B00000000138D
:04015C00000000138C
:04015D00000000138B
:04015E00000000138A
:04015F000000001389
:040160000000001388
:040161000000001387
:040162000000001386
:040163000000001385
:040164000000001384
:040165000000001383
:040166000000001382
:040167000000001381
:040168000000001380
:04016900000000137F
:04016A00000000137E
:04016B00000000137D
:04016C00000000137C
:04016D00000000137B
:04016E00000000137A
:04016F000000001379
:040170000000001378
:040171000000001377
:040172000000001376
:040173000000001375
:040174000000001374
:040175000000001373
:040176000000001372
:040177000000001371
:040178000000001370
:04017900000000136F
:04017A00000000136E
:04017B00000000136D
:04017C00000000136C
:04017D00000000136B
:04017E00000000136A
:04017F000000001369
:040180000000001368
:040181000000001367
:040182000000001366
:040183000000001365
:040184000000001364
:040185000000001363
:040186000000001362
:040187000000001361
:040188000000001360
:04018900000000135F
:04018A00000000135E
:04018B00000000135D
:04018C00000000135C
:04018D00000000135B
:04018E00000000135A
:04018F000000001359
:040190000000001358
:040191000000001357
:040192000000001356
:040193000000001355
:040194000000001354
:040195000000001353
:040196000000001352
:040197000000001351
:040198000000001350
:04019900000000134F
:04019A00000000134E
:04019B00000000134D
:04019C00000000134C
:04019D00000000134B
:04019E00000000134A
:04019F000000001349
:0401A0000000001348
:0401A1000000001347
:0401A2000000001346
:0401A3000000001345
:0401A4000000001344
:0401A5000000001343
:0401A6000000001342
:0401A7000000001341
:0401A8000000001340
:0401A900000000133F
:0401AA00000000133E
:0401AB00000000133D
:0401AC00000000133C
:0401AD00000000133B
:0401AE00000000133A
:0401AF000000001339
:0401B0000000001338
:0401B1000000001337
:0401B2000000001336
:0401B3000000001335
:0401B4000000001334
:0401B5000000001333
:0401B6000000001332
:0401B7000000001331
:0401B8000000001330
:0401B900000000132F
:0401BA00000000132E
:0401BB00000000132D
:0401BC00000000132C
:0401BD00000000132B
:0401BE00000000132A
:0401BF000000001329
:0401C0000000001328
:0401C1000000001327
:0401C2000000001326
:0401C3000000001325
:0401C4000000001324
:0401C5000000001323
:0401C6000000001322
:0401C7000000001321
:0401C8000000001320
:0401C900000000131F
:0401CA00000000131E
:0401CB00000000131D
:0401CC00000000131C
:0401CD00000000131B
:0401CE00000000131A
:0401CF000000001319
:0401D0000000001318
:0401D1000000001317
:0401D2000000001316
:0401D3000000001315
:0401D4000000001314
:0401D5000000001313
:0401D6000000001312
:0401D7000000001311
:0401D8000000001310
:0401D900000000130F
:0401DA00000000130E
:0401DB00000000130D
:0401DC00000000130C
:0401DD00000000130B
:0401DE00000000130A
:0401DF000000001309
:0401E0000000001308
:0401E1000000001307
:0401E2000000001306
:0401E3000000001305
:0401E4000000001304
:0401E5000000001303
:0401E6000000001302
:0401E7000000001301
:0401E8000000001300
:0401E90000000013FF
:0401EA0000000013FE
:0401EB0000000013FD
:0401EC0000000013FC
:0401ED0000000013FB
:0401EE0000000013FA
:0401EF0000000013F9
:0401F00000000013F8
:0401F10000000013F7
:0401F20000000013F6
:0401F30000000013F5
:0401F40000000013F4
:0401F50000000013F3
:0401F60000000013F2
:0401F70000000013F1
:0401F80000000013F0
:0401F90000000013EF
:0401FA0000000013EE
:0401FB0000000013ED
:0401FC0000000013EC
:0401FD0000000013EB
:0401FE0000000013EA
:0401FF0000000013E9
:0402000000000013E7
:0402010000000013E6
:0402020000000013E5
:0402030000000013E4
:0402040000000013E3
:0402050000000013E2
:0402060000000013E1
:0402070000000013E0
:0402080000000013DF
:0402090000000013DE
:04020A0000000013DD
:04020B0000000013DC
:04020C0000000013DB
:04020D0000000013DA
:04020E0000000013D9
:04020F0000000013D8
:0402100000000013D7
:0402110000000013D6
:0402120000000013D5
:0402130000000013D4
:0402140000000013D3
:0402150000000013D2
:0402160000000013D1
:0402170000000013D0
:0402180000000013CF
:0402190000000013CE
:04021A0000000013CD
:04021B0000000013CC
:04021C0000000013CB
:04021D0000000013CA
:04021E0000000013C9
:04021F0000000013C8
:0402200000000013C7
:0402210000000013C6
:0402220000000013C5
:0402230000000013C4
:0402240000000013C3
:0402250000000013C2
:0402260000000013C1
:0402270000000013C0
:0402280000000013BF
:0402290000000013BE
:04022A0000000013BD
:04022B0000000013BC
:04022C0000000013BB
:04022D0000000013BA
:04022E0000000013B9
:04022F0000000013B8
:0402300000000013B7
:0402310000000013B6
:0402320000000013B5
:0402330000000013B4
:0402340000000013B3
:0402350000000013B2
:0402360000000013B1
:0402370000000013B0
:0402380000000013AF
:0402390000000013AE
:04023A0000000013AD
:04023B0000000013AC
:04023C0000000013AB
:04023D0000000013AA
:04023E0000000013A9
:04023F0000000013A8
:0402400000000013A7
:0402410000000013A6
:0402420000000013A5
:0402430000000013A4
:0402440000000013A3
:0402450000000013A2
:0402460000000013A1
:0402470000000013A0
:04024800000000139F
:04024900000000139E
:04024A00000000139D
:04024B00000000139C
:04024C00000000139B
:04024D00000000139A
:04024E000000001399
:04024F000000001398
:040250000000001397
:040251000000001396
:040252000000001395
:040253000000001394
:040254000000001393
:040255000000001392
:040256000000001391
:040257000000001390
:04025800000000138F
:04025900000000138E
:04025A00000000138D
:04025B00000000138C
:04025C00000000138B
:04025D00000000138A
:04025E000000001389
:04025F000000001388
:040260000000001387
:040261000000001386
:040262000000001385
:040263000000001384
:040264000000001383
:040265000000001382
:040266000000001381
:040267000000001380
:04026800000000137F
:04026900000000137E
:04026A00000000137D
:04026B00000000137C
:04026C00000000137B
:04026D00000000137A
:04026E000000001379
:04026F000000001378
:040270000000001377
:040271000000001376
:040272000000001375
:040273000000001374
:040274000000001373
:040275000000001372
:040276000000001371
:040277000000001370
:04027800000000136F
:04027900000000136E
:04027A00000000136D
:04027B00000000136C
:04027C00000000136B
:04027D00000000136A
:04027E000000001369
:04027F000000001368
:040280000000001367
:040281000000001366
:040282000000001365
:040283000000001364
:040284000000001363
:040285000000001362
:040286000000001361
:040287000000001360
:04028800000000135F
:04028900000000135E
:04028A00000000135D
:04028B00000000135C
:04028C00000000135B
:04028D00000000135A
:04028E000000001359
:04028F000000001358
:040290000000001357
:040291000000001356
:040292000000001355
:040293000000001354
:040294000000001353
:040295000000001352
:040296000000001351
:040297000000001350
:04029800000000134F
:04029900000000134E
:04029A00000000134D
:04029B00000000134C
:04029C00000000134B
:04029D00000000134A
:04029E000000001349
:04029F000000001348
:0402A0000000001347
:0402A1000000001346
:0402A2000000001345
:0402A3000000001344
:0402A4000000001343
:0402A5000000001342
:0402A6000000001341
:0402A7000000001340
:0402A800000000133F
:0402A900000000133E
:0402AA00000000133D
:0402AB00000000133C
:0402AC00000000133B
:0402AD00000000133A
:0402AE000000001339
:0402AF000000001338
:0402B0000000001337
:0402B1000000001336
:0402B2000000001335
:0402B3000000001334
:0402B4000000001333
:0402B5000000001332
:0402B6000000001331
:0402B7000000001330
:0402B800000000132F
:0402B900000000132E
:0402BA00000000132D
:0402BB00000000132C
:0402BC00000000132B
:0402BD00000000132A
:0402BE000000001329
:0402BF000000001328
:0402C0000000001327
:0402C1000000001326
:0402C2000000001325
:0402C3000000001324
:0402C4000000001323
:0402C5000000001322
:0402C6000000001321
:0402C7000000001320
:0402C800000000131F
:0402C900000000131E
:0402CA00000000131D
:0402CB00000000131C
:0402CC00000000131B
:0402CD00000000131A
:0402CE000000001319
:0402CF000000001318
:0402D0000000001317
:0402D1000000001316
:0402D2000000001315
:0402D3000000001314
:0402D4000000001313
:0402D5000000001312
:0402D6000000001311
:0402D7000000001310
:0402D800000000130F
:0402D900000000130E
:0402DA00000000130D
:0402DB00000000130C
:0402DC00000000130B
:0402DD00000000130A
:0402DE000000001309
:0402DF000000001308
:0402E0000000001307
:0402E1000000001306
:0402E2000000001305
:0402E3000000001304
:0402E4000000001303
:0402E5000000001302
:0402E6000000001301
:0402E7000000001300
:0402E80000000013FF
:0402E90000000013FE
:0402EA0000000013FD
:0402EB0000000013FC
:0402EC0000000013FB
:0402ED0000000013FA
:0402EE0000000013F9
:0402EF0000000013F8
:0402F00000000013F7
:0402F10000000013F6
:0402F20000000013F5
:0402F30000000013F4
:0402F40000000013F3
:0402F50000000013F2
:0402F60000000013F1
:0402F70000000013F0
:0402F80000000013EF
:0402F90000000013EE
:0402FA0000000013ED
:0402FB0000000013EC
:0402FC0000000013EB
:0402FD0000000013EA
:0402FE0000000013E9
:0402FF0000000013E8
:0403000000000013E6
:0403010000000013E5
:0403020000000013E4
:0403030000000013E3
:0403040000000013E2
:0403050000000013E1
:0403060000000013E0
:0403070000000013DF
:0403080000000013DE
:0403090000000013DD
:04030A0000000013DC
:04030B0000000013DB
:04030C0000000013DA
:04030D0000000013D9
:04030E0000000013D8
:04030F0000000013D7
:0403100000000013D6
:0403110000000013D5
:0403120000000013D4
:0403130000000013D3
:0403140000000013D2
:0403150000000013D1
:0403160000000013D0
:0403170000000013CF
:0403180000000013CE
:0403190000000013CD
:04031A0000000013CC
:04031B0000000013CB
:04031C0000000013CA
:04031D0000000013C9
:04031E0000000013C8
:04031F0000000013C7
:0403200000000013C6
:0403210000000013C5
:0403220000000013C4
:0403230000000013C3
:0403240000000013C2
:0403250000000013C1
:0403260000000013C0
:0403270000000013BF
:0403280000000013BE
:0403290000000013BD
:04032A0000000013BC
:04032B0000000013BB
:04032C0000000013BA
:04032D0000000013B9
:04032E0000000013B8
:04032F0000000013B7
:0403300000000013B6
:0403310000000013B5
:0403320000000013B4
:0403330000000013B3
:0403340000000013B2
:0403350000000013B1
:0403360000000013B0
:0403370000000013AF
:0403380000000013AE
:0403390000000013AD
:04033A0000000013AC
:04033B0000000013AB
:04033C0000000013AA
:04033D0000000013A9
:04033E0000000013A8
:04033F0000000013A7
:0403400000000013A6
:0403410000000013A5
:0403420000000013A4
:0403430000000013A3
:0403440000000013A2
:0403450000000013A1
:0403460000000013A0
:04034700000000139F
:04034800000000139E
:04034900000000139D
:04034A00000000139C
:04034B00000000139B
:04034C00000000139A
:04034D000000001399
:04034E000000001398
:04034F000000001397
:040350000000001396
:040351000000001395
:040352000000001394
:040353000000001393
:040354000000001392
:040355000000001391
:040356000000001390
:04035700000000138F
:04035800000000138E
:04035900000000138D
:04035A00000000138C
:04035B00000000138B
:04035C00000000138A
:04035D000000001389
:04035E000000001388
:04035F000000001387
:040360000000001386
:040361000000001385
:040362000000001384
:040363000000001383
:040364000000001382
:040365000000001381
:040366000000001380
:04036700000000137F
:04036800000000137E
:04036900000000137D
:04036A00000000137C
:04036B00000000137B
:04036C00000000137A
:04036D000000001379
:04036E000000001378
:04036F000000001377
:040370000000001376
:040371000000001375
:040372000000001374
:040373000000001373
:040374000000001372
:040375000000001371
:040376000000001370
:04037700000000136F
:04037800000000136E
:04037900000000136D
:04037A00000000136C
:04037B00000000136B
:04037C00000000136A
:04037D000000001369
:04037E000000001368
:04037F000000001367
:040380000000001366
:040381000000001365
:040382000000001364
:040383000000001363
:040384000000001362
:040385000000001361
:040386000000001360
:04038700000000135F
:04038800000000135E
:04038900000000135D
:04038A00000000135C
:04038B00000000135B
:04038C00000000135A
:04038D000000001359
:04038E000000001358
:04038F000000001357
:040390000000001356
:040391000000001355
:040392000000001354
:040393000000001353
:040394000000001352
:040395000000001351
:040396000000001350
:04039700000000134F
:04039800000000134E
:04039900000000134D
:04039A00000000134C
:04039B00000000134B
:04039C00000000134A
:04039D000000001349
:04039E000000001348
:04039F000000001347
:0403A0000000001346
:0403A1000000001345
:0403A2000000001344
:0403A3000000001343
:0403A4000000001342
:0403A5000000001341
:0403A6000000001340
:0403A700000000133F
:0403A800000000133E
:0403A900000000133D
:0403AA00000000133C
:0403AB00000000133B
:0403AC00000000133A
:0403AD000000001339
:0403AE000000001338
:0403AF000000001337
:0403B0000000001336
:0403B1000000001335
:0403B2000000001334
:0403B3000000001333
:0403B4000000001332
:0403B5000000001331
:0403B6000000001330
:0403B700000000132F
:0403B800000000132E
:0403B900000000132D
:0403BA00000000132C
:0403BB00000000132B
:0403BC00000000132A
:0403BD000000001329
:0403BE000000001328
:0403BF000000001327
:0403C0000000001326
:0403C1000000001325
:0403C2000000001324
:0403C3000000001323
:0403C4000000001322
:0403C5000000001321
:0403C6000000001320
:0403C700000000131F
:0403C800000000131E
:0403C900000000131D
:0403CA00000000131C
:0403CB00000000131B
:0403CC00000000131A
:0403CD000000001319
:0403CE000000001318
:0403CF000000001317
:0403D0000000001316
:0403D1000000001315
:0403D2000000001314
:0403D3000000001313
:0403D4000000001312
:0403D5000000001311
:0403D6000000001310
:0403D700000000130F
:0403D800000000130E
:0403D900000000130D
:0403DA00000000130C
:0403DB00000000130B
:0403DC00000000130A
:0403DD000000001309
:0403DE000000001308
:0403DF000000001307
:0403E0000000001306
:0403E1000000001305
:0403E2000000001304
:0403E3000000001303
:0403E4000000001302
:0403E5000000001301
:0403E6000000001300
:0403E70000000013FF
:0403E80000000013FE
:0403E90000000013FD
:0403EA0000000013FC
:0403EB0000000013FB
:0403EC0000000013FA
:0403ED0000000013F9
:0403EE0000000013F8
:0403EF0000000013F7
:0403F00000000013F6
:0403F10000000013F5
:0403F20000000013F4
:0403F30000000013F3
:0403F40000000013F2
:0403F50000000013F1
:0403F60000000013F0
:0403F70000000013EF
:0403F80000000013EE
:0403F90000000013ED
:0403FA0000000013EC
:0403FB0000000013EB
:0403FC0000000013EA
:0403FD0000000013E9
:0403FE0000000013E8
:0403FF0000000013E7
:0404000000000013E5
:0404010000000013E4
:0404020000000013E3
:0404030000000013E2
:0404040000000013E1
:0404050000000013E0
:0404060000000013DF
:0404070000000013DE
:0404080000000013DD
:0404090000000013DC
:04040A0000000013DB
:04040B0000000013DA
:04040C0000000013D9
:04040D0000000013D8
:04040E0000000013D7
:04040F0000000013D6
:0404100000000013D5
:0404110000000013D4
:0404120000000013D3
:0404130000000013D2
:0404140000000013D1
:0404150000000013D0
:0404160000000013CF
:0404170000000013CE
:0404180000000013CD
:0404190000000013CC
:04041A0000000013CB
:04041B0000000013CA
:04041C0000000013C9
:04041D0000000013C8
:04041E0000000013C7
:04041F0000000013C6
:0404200000000013C5
:0404210000000013C4
:0404220000000013C3
:0404230000000013C2
:0404240000000013C1
:0404250000000013C0
:0404260000000013BF
:0404270000000013BE
:0404280000000013BD
:0404290000000013BC
:04042A0000000013BB
:04042B0000000013BA
:04042C0000000013B9
:04042D0000000013B8
:04042E0000000013B7
:04042F0000000013B6
:0404300000000013B5
:0404310000000013B4
:0404320000000013B3
:0404330000000013B2
:0404340000000013B1
:0404350000000013B0
:0404360000000013AF
:0404370000000013AE
:0404380000000013AD
:0404390000000013AC
:04043A0000000013AB
:04043B0000000013AA
:04043C0000000013A9
:04043D0000000013A8
:04043E0000000013A7
:04043F0000000013A6
:0404400000000013A5
:0404410000000013A4
:0404420000000013A3
:0404430000000013A2
:0404440000000013A1
:0404450000000013A0
:04044600000000139F
:04044700000000139E
:04044800000000139D
:04044900000000139C
:04044A00000000139B
:04044B00000000139A
:04044C000000001399
:04044D000000001398
:04044E000000001397
:04044F000000001396
:040450000000001395
:040451000000001394
:040452000000001393
:040453000000001392
:040454000000001391
:040455000000001390
:04045600000000138F
:04045700000000138E
:04045800000000138D
:04045900000000138C
:04045A00000000138B
:04045B00000000138A
:04045C000000001389
:04045D000000001388
:04045E000000001387
:04045F000000001386
:040460000000001385
:040461000000001384
:040462000000001383
:040463000000001382
:040464000000001381
:040465000000001380
:04046600000000137F
:04046700000000137E
:04046800000000137D
:04046900000000137C
:04046A00000000137B
:04046B00000000137A
:04046C000000001379
:04046D000000001378
:04046E000000001377
:04046F000000001376
:040470000000001375
:040471000000001374
:040472000000001373
:040473000000001372
:040474000000001371
:040475000000001370
:04047600000000136F
:04047700000000136E
:04047800000000136D
:04047900000000136C
:04047A00000000136B
:04047B00000000136A
:04047C000000001369
:04047D000000001368
:04047E000000001367
:04047F000000001366
:040480000000001365
:040481000000001364
:040482000000001363
:040483000000001362
:040484000000001361
:040485000000001360
:04048600000000135F
:04048700000000135E
:04048800000000135D
:04048900000000135C
:04048A00000000135B
:04048B00000000135A
:04048C000000001359
:04048D000000001358
:04048E000000001357
:04048F000000001356
:040490000000001355
:040491000000001354
:040492000000001353
:040493000000001352
:040494000000001351
:040495000000001350
:04049600000000134F
:04049700000000134E
:04049800000000134D
:04049900000000134C
:04049A00000000134B
:04049B00000000134A
:04049C000000001349
:04049D000000001348
:04049E000000001347
:04049F000000001346
:0404A0000000001345
:0404A1000000001344
:0404A2000000001343
:0404A3000000001342
:0404A4000000001341
:0404A5000000001340
:0404A600000000133F
:0404A700000000133E
:0404A800000000133D
:0404A900000000133C
:0404AA00000000133B
:0404AB00000000133A
:0404AC000000001339
:0404AD000000001338
:0404AE000000001337
:0404AF000000001336
:0404B0000000001335
:0404B1000000001334
:0404B2000000001333
:0404B3000000001332
:0404B4000000001331
:0404B5000000001330
:0404B600000000132F
:0404B700000000132E
:0404B800000000132D
:0404B900000000132C
:0404BA00000000132B
:0404BB00000000132A
:0404BC000000001329
:0404BD000000001328
:0404BE000000001327
:0404BF000000001326
:0404C0000000001325
:0404C1000000001324
:0404C2000000001323
:0404C3000000001322
:0404C4000000001321
:0404C5000000001320
:0404C600000000131F
:0404C700000000131E
:0404C800000000131D
:0404C900000000131C
:0404CA00000000131B
:0404CB00000000131A
:0404CC000000001319
:0404CD000000001318
:0404CE000000001317
:0404CF000000001316
:0404D0000000001315
:0404D1000000001314
:0404D2000000001313
:0404D3000000001312
:0404D4000000001311
:0404D5000000001310
:0404D600000000130F
:0404D700000000130E
:0404D800000000130D
:0404D900000000130C
:0404DA00000000130B
:0404DB00000000130A
:0404DC000000001309
:0404DD000000001308
:0404DE000000001307
:0404DF000000001306
:0404E0000000001305
:0404E1000000001304
:0404E2000000001303
:0404E3000000001302
:0404E4000000001301
:0404E5000000001300
:0404E60000000013FF
:0404E70000000013FE
:0404E80000000013FD
:0404E90000000013FC
:0404EA0000000013FB
:0404EB0000000013FA
:0404EC0000000013F9
:0404ED0000000013F8
:0404EE0000000013F7
:0404EF0000000013F6
:0404F00000000013F5
:0404F10000000013F4
:0404F20000000013F3
:0404F30000000013F2
:0404F40000000013F1
:0404F50000000013F0
:0404F60000000013EF
:0404F70000000013EE
:0404F80000000013ED
:0404F90000000013EC
:0404FA0000000013EB
:0404FB0000000013EA
:0404FC0000000013E9
:0404FD0000000013E8
:0404FE0000000013E7
:0404FF0000000013E6
:0405000000000013E4
:0405010000000013E3
:0405020000000013E2
:0405030000000013E1
:0405040000000013E0
:0405050000000013DF
:0405060000000013DE
:0405070000000013DD
:0405080000000013DC
:0405090000000013DB
:04050A0000000013DA
:04050B0000000013D9
:04050C0000000013D8
:04050D0000000013D7
:04050E0000000013D6
:04050F0000000013D5
:0405100000000013D4
:0405110000000013D3
:0405120000000013D2
:0405130000000013D1
:0405140000000013D0
:0405150000000013CF
:0405160000000013CE
:0405170000000013CD
:0405180000000013CC
:0405190000000013CB
:04051A0000000013CA
:04051B0000000013C9
:04051C0000000013C8
:04051D0000000013C7
:04051E0000000013C6
:04051F0000000013C5
:0405200000000013C4
:0405210000000013C3
:0405220000000013C2
:0405230000000013C1
:0405240000000013C0
:0405250000000013BF
:0405260000000013BE
:0405270000000013BD
:0405280000000013BC
:0405290000000013BB
:04052A0000000013BA
:04052B0000000013B9
:04052C0000000013B8
:04052D0000000013B7
:04052E0000000013B6
:04052F0000000013B5
:0405300000000013B4
:0405310000000013B3
:0405320000000013B2
:0405330000000013B1
:0405340000000013B0
:0405350000000013AF
:0405360000000013AE
:0405370000000000C0
:0405380000000013AC
:0405390000000013AB
:04053A0000000013AA
:04053B0000000013A9
:04053C0000000013A8
:04053D0000000013A7
:04053E0000000013A6
:04053F0000000013A5
:0405400000000013A4
:0405410000000013A3
:0405420000000013A2
:0405430000000013A1
:0405440000000013A0
:04054500000000139F
:04054600000000139E
:04054700000000139D
:04054800000000139C
:04054900000000139B
:04054A00000000139A
:04054B000000001399
:04054C000000001398
:04054D000000001397
:04054E000000001396
:04054F000000001395
:040550000000001394
:040551000000001393
:040552000000001392
:040553000000001391
:040554000000001390
:04055500000000138F
:04055600000000138E
:04055700000000138D
:04055800000000138C
:04055900000000138B
:04055A00000000138A
:04055B000000001389
:04055C000000001388
:04055D000000001387
:04055E000000001386
:04055F000000001385
:040560000000001384
:040561000000001383
:040562000000001382
:040563000000001381
:040564000000001380
:04056500000000137F
:04056600000000137E
:04056700000000137D
:04056800000000137C
:04056900000000137B
:04056A00000000137A
:04056B000000001379
:04056C000000001378
:04056D000000001377
:04056E000000001376
:04056F000000001375
:040570000000001374
:040571000000001373
:040572000000001372
:040573000000001371
:040574000000001370
:04057500000000136F
:04057600000000136E
:04057700000000136D
:04057800000000136C
:04057900000000136B
:04057A00000000136A
:04057B000000001369
:04057C000000001368
:04057D000000001367
:04057E000000001366
:04057F000000001365
:040580000000001364
:040581000000001363
:040582000000001362
:040583000000001361
:040584000000001360
:04058500000000135F
:04058600000000135E
:04058700000000135D
:04058800000000135C
:04058900000000135B
:04058A00000000135A
:04058B000000001359
:04058C000000001358
:04058D000000001357
:04058E000000001356
:04058F000000001355
:040590000000001354
:040591000000001353
:040592000000001352
:040593000000001351
:040594000000001350
:04059500000000134F
:04059600000000134E
:04059700000000134D
:04059800000000134C
:04059900000000134B
:04059A00000000134A
:04059B000000001349
:04059C000000001348
:04059D000000001347
:04059E000000001346
:04059F000000001345
:0405A0000000001344
:0405A1000000001343
:0405A2000000001342
:0405A3000000001341
:0405A4000000001340
:0405A500000000133F
:0405A600000000133E
:0405A700000000133D
:0405A800000000133C
:0405A900000000133B
:0405AA00000000133A
:0405AB000000001339
:0405AC000000001338
:0405AD000000001337
:0405AE000000001336
:0405AF000000001335
:0405B0000000001334
:0405B1000000001333
:0405B2000000001332
:0405B3000000001331
:0405B4000000001330
:0405B500000000132F
:0405B600000000132E
:0405B700000000132D
:0405B800000000132C
:0405B900000000132B
:0405BA00000000132A
:0405BB000000001329
:0405BC000000001328
:0405BD000000001327
:0405BE000000001326
:0405BF000000001325
:0405C0000000001324
:0405C1000000001323
:0405C2000000001322
:0405C3000000001321
:0405C4000000001320
:0405C500000000131F
:0405C600000000131E
:0405C700000000131D
:0405C800000000131C
:0405C900000000131B
:0405CA00000000131A
:0405CB000000001319
:0405CC000000001318
:0405CD000000001317
:0405CE000000001316
:0405CF000000001315
:0405D0000000001314
:0405D1000000001313
:0405D2000000001312
:0405D3000000001311
:0405D4000000001310
:0405D500000000130F
:0405D600000000130E
:0405D700000000130D
:0405D800000000130C
:0405D900000000130B
:0405DA00000000130A
:0405DB000000001309
:0405DC000000001308
:0405DD000000001307
:0405DE000000001306
:0405DF000000001305
:0405E0000000001304
:0405E1000000001303
:0405E2000000001302
:0405E3000000001301
:0405E4000000001300
:0405E50000000013FF
:0405E60000000013FE
:0405E70000000013FD
:0405E80000000013FC
:0405E90000000013FB
:0405EA0000000013FA
:0405EB0000000013F9
:0405EC0000000013F8
:0405ED0000000013F7
:0405EE0000000013F6
:0405EF0000000013F5
:0405F00000000013F4
:0405F10000000013F3
:0405F20000000013F2
:0405F30000000013F1
:0405F40000000013F0
:0405F50000000013EF
:0405F60000000013EE
:0405F70000000013ED
:0405F80000000013EC
:0405F90000000013EB
:0405FA0000000013EA
:0405FB0000000013E9
:0405FC0000000013E8
:0405FD0000000013E7
:0405FE0000000013E6
:0405FF0000000013E5
:0406000000000013E3
:0406010000000013E2
:0406020000000013E1
:0406030000000013E0
:0406040000000013DF
:0406050000000013DE
:0406060000000013DD
:0406070000000013DC
:0406080000000013DB
:0406090000000013DA
:04060A0000000013D9
:04060B0000000013D8
:04060C0000000013D7
:04060D0000000013D6
:04060E0000000013D5
:04060F0000000013D4
:0406100000000013D3
:0406110000000013D2
:0406120000000013D1
:0406130000000013D0
:0406140000000013CF
:0406150000000013CE
:0406160000000013CD
:0406170000000013CC
:0406180000000013CB
:0406190000000013CA
:04061A0000000013C9
:04061B0000000013C8
:04061C0000000013C7
:04061D0000000013C6
:04061E0000000013C5
:04061F0000000013C4
:0406200000000013C3
:0406210000000013C2
:0406220000000013C1
:0406230000000013C0
:0406240000000013BF
:0406250000000013BE
:0406260000000013BD
:0406270000000013BC
:0406280000000013BB
:0406290000000013BA
:04062A0000000013B9
:04062B0000000013B8
:04062C0000000013B7
:04062D0000000013B6
:04062E0000000013B5
:04062F0000000013B4
:0406300000000013B3
:0406310000000013B2
:0406320000000013B1
:0406330000000013B0
:0406340000000013AF
:0406350000000013AE
:0406360000000013AD
:0406370000000013AC
:0406380000000013AB
:0406390000000013AA
:04063A0000000013A9
:04063B0000000013A8
:04063C0000000013A7
:04063D0000000013A6
:04063E0000000013A5
:04063F0000000013A4
:0406400000000013A3
:0406410000000013A2
:0406420000000013A1
:0406430000000013A0
:04064400000000139F
:04064500000000139E
:04064600000000139D
:04064700000000139C
:04064800000000139B
:04064900000000139A
:04064A000000001399
:04064B000000001398
:04064C000000001397
:04064D000000001396
:04064E000000001395
:04064F000000001394
:040650000000001393
:040651000000001392
:040652000000001391
:040653000000001390
:04065400000000138F
:04065500000000138E
:04065600000000138D
:04065700000000138C
:04065800000000138B
:04065900000000138A
:04065A000000001389
:04065B000000001388
:04065C000000001387
:04065D000000001386
:04065E000000001385
:04065F000000001384
:040660000000001383
:040661000000001382
:040662000000001381
:040663000000001380
:04066400000000137F
:04066500000000137E
:04066600000000137D
:04066700000000137C
:04066800000000137B
:04066900000000137A
:04066A000000001379
:04066B000000001378
:04066C000000001377
:04066D000000001376
:04066E000000001375
:04066F000000001374
:040670000000001373
:040671000000001372
:040672000000001371
:040673000000001370
:04067400000000136F
:04067500000000136E
:04067600000000136D
:04067700000000136C
:04067800000000136B
:04067900000000136A
:04067A000000001369
:04067B000000001368
:04067C000000001367
:04067D000000001366
:04067E000000001365
:04067F000000001364
:040680000000001363
:040681000000001362
:040682000000001361
:040683000000001360
:04068400000000135F
:04068500000000135E
:04068600000000135D
:04068700000000135C
:04068800000000135B
:04068900000000135A
:04068A000000001359
:04068B000000001358
:04068C000000001357
:04068D000000001356
:04068E000000001355
:04068F000000001354
:040690000000001353
:040691000000001352
:040692000000001351
:040693000000001350
:04069400000000134F
:04069500000000134E
:04069600000000134D
:04069700000000134C
:04069800000000134B
:04069900000000134A
:04069A000000001349
:04069B000000001348
:04069C000000001347
:04069D000000001346
:04069E000000001345
:04069F000000001344
:0406A0000000001343
:0406A1000000001342
:0406A2000000001341
:0406A3000000001340
:0406A400000000133F
:0406A500000000133E
:0406A600000000133D
:0406A700000000133C
:0406A800000000133B
:0406A900000000133A
:0406AA000000001339
:0406AB000000001338
:0406AC000000001337
:0406AD000000001336
:0406AE000000001335
:0406AF000000001334
:0406B0000000001333
:0406B1000000001332
:0406B2000000001331
:0406B3000000001330
:0406B400000000132F
:0406B500000000132E
:0406B600000000132D
:0406B700000000132C
:0406B800000000132B
:0406B900000000132A
:0406BA000000001329
:0406BB000000001328
:0406BC000000001327
:0406BD000000001326
:0406BE000000001325
:0406BF000000001324
:0406C0000000001323
:0406C1000000001322
:0406C2000000001321
:0406C3000000001320
:0406C400000000131F
:0406C500000000131E
:0406C600000000131D
:0406C700000000131C
:0406C800000000131B
:0406C900000000131A
:0406CA000000001319
:0406CB000000001318
:0406CC000000001317
:0406CD000000001316
:0406CE000000001315
:0406CF000000001314
:0406D0000000001313
:0406D1000000001312
:0406D2000000001311
:0406D3000000001310
:0406D400000000130F
:0406D500000000130E
:0406D600000000130D
:0406D700000000130C
:0406D800000000130B
:0406D900000000130A
:0406DA000000001309
:0406DB000000001308
:0406DC000000001307
:0406DD000000001306
:0406DE000000001305
:0406DF000000001304
:0406E0000000001303
:0406E1000000001302
:0406E2000000001301
:0406E3000000001300
:0406E40000000013FF
:0406E50000000013FE
:0406E60000000013FD
:0406E70000000013FC
:0406E80000000013FB
:0406E90000000013FA
:0406EA0000000013F9
:0406EB0000000013F8
:0406EC0000000013F7
:0406ED0000000013F6
:0406EE0000000013F5
:0406EF0000000013F4
:0406F00000000013F3
:0406F10000000013F2
:0406F20000000013F1
:0406F30000000013F0
:0406F40000000013EF
:0406F50000000013EE
:0406F60000000013ED
:0406F70000000013EC
:0406F80000000013EB
:0406F90000000013EA
:0406FA0000000013E9
:0406FB0000000013E8
:0406FC0000000013E7
:0406FD0000000013E6
:0406FE0000000013E5
:0406FF0000000013E4
:0407000000000013E2
:0407010000000013E1
:0407020000000013E0
:0407030000000013DF
:0407040000000013DE
:0407050000000013DD
:0407060000000013DC
:0407070000000013DB
:0407080000000013DA
:0407090000000013D9
:04070A0000000013D8
:04070B0000000013D7
:04070C0000000013D6
:04070D0000000013D5
:04070E0000000013D4
:04070F0000000013D3
:0407100000000013D2
:0407110000000013D1
:0407120000000013D0
:0407130000000013CF
:0407140000000013CE
:0407150000000013CD
:0407160000000013CC
:0407170000000013CB
:0407180000000013CA
:0407190000000013C9
:04071A0000000013C8
:04071B0000000013C7
:04071C0000000013C6
:04071D0000000013C5
:04071E0000000013C4
:04071F0000000013C3
:0407200000000013C2
:0407210000000013C1
:0407220000000013C0
:0407230000000013BF
:0407240000000013BE
:0407250000000013BD
:0407260000000013BC
:0407270000000013BB
:0407280000000013BA
:0407290000000013B9
:04072A0000000013B8
:04072B0000000013B7
:04072C0000000013B6
:04072D0000000013B5
:04072E0000000013B4
:04072F0000000013B3
:0407300000000013B2
:0407310000000013B1
:0407320000000013B0
:0407330000000013AF
:0407340000000013AE
:0407350000000013AD
:0407360000000013AC
:0407370000000013AB
:0407380000000013AA
:0407390000000013A9
:04073A0000000013A8
:04073B0000000013A7
:04073C0000000013A6
:04073D0000000013A5
:04073E0000000013A4
:04073F0000000013A3
:0407400000000013A2
:0407410000000013A1
:0407420000000013A0
:04074300000000139F
:04074400000000139E
:04074500000000139D
:04074600000000139C
:04074700000000139B
:04074800000000139A
:040749000000001399
:04074A000000001398
:04074B000000001397
:04074C000000001396
:04074D000000001395
:04074E000000001394
:04074F000000001393
:040750000000001392
:040751000000001391
:040752000000001390
:04075300000000138F
:04075400000000138E
:04075500000000138D
:04075600000000138C
:04075700000000138B
:04075800000000138A
:040759000000001389
:04075A000000001388
:04075B000000001387
:04075C000000001386
:04075D000000001385
:04075E000000001384
:04075F000000001383
:040760000000001382
:040761000000001381
:040762000000001380
:04076300000000137F
:04076400000000137E
:04076500000000137D
:04076600000000137C
:04076700000000137B
:04076800000000137A
:040769000000001379
:04076A000000001378
:04076B000000001377
:04076C000000001376
:04076D000000001375
:04076E000000001374
:04076F000000001373
:040770000000001372
:040771000000001371
:040772000000001370
:04077300000000136F
:04077400000000136E
:04077500000000136D
:04077600000000136C
:04077700000000136B
:04077800000000136A
:040779000000001369
:04077A000000001368
:04077B000000001367
:04077C000000001366
:04077D000000001365
:04077E000000001364
:04077F000000001363
:040780000000001362
:040781000000001361
:040782000000001360
:04078300000000135F
:04078400000000135E
:04078500000000135D
:04078600000000135C
:04078700000000135B
:04078800000000135A
:040789000000001359
:04078A000000001358
:04078B000000001357
:04078C000000001356
:04078D000000001355
:04078E000000001354
:04078F000000001353
:040790000000001352
:040791000000001351
:040792000000001350
:04079300000000134F
:04079400000000134E
:04079500000000134D
:04079600000000134C
:04079700000000134B
:04079800000000134A
:040799000000001349
:04079A000000001348
:04079B000000001347
:04079C000000001346
:04079D000000001345
:04079E000000001344
:04079F000000001343
:0407A0000000001342
:0407A1000000001341
:0407A2000000001340
:0407A300000000133F
:0407A400000000133E
:0407A500000000133D
:0407A600000000133C
:0407A700000000133B
:0407A800000000133A
:0407A9000000001339
:0407AA000000001338
:0407AB000000001337
:0407AC000000001336
:0407AD000000001335
:0407AE000000001334
:0407AF000000001333
:0407B0000000001332
:0407B1000000001331
:0407B2000000001330
:0407B300000000132F
:0407B400000000132E
:0407B500000000132D
:0407B600000000132C
:0407B700000000132B
:0407B800000000132A
:0407B9000000001329
:0407BA000000001328
:0407BB000000001327
:0407BC000000001326
:0407BD000000001325
:0407BE000000001324
:0407BF000000001323
:0407C0000000001322
:0407C1000000001321
:0407C2000000001320
:0407C300000000131F
:0407C400000000131E
:0407C500000000131D
:0407C600000000131C
:0407C700000000131B
:0407C800000000131A
:0407C9000000001319
:0407CA000000001318
:0407CB000000001317
:0407CC000000001316
:0407CD000000001315
:0407CE000000001314
:0407CF000000001313
:0407D0000000001312
:0407D1000000001311
:0407D2000000001310
:0407D300000000130F
:0407D400000000130E
:0407D500000000130D
:0407D600000000130C
:0407D700000000130B
:0407D800000000130A
:0407D9000000001309
:0407DA000000001308
:0407DB000000001307
:0407DC000000001306
:0407DD000000001305
:0407DE000000001304
:0407DF000000001303
:0407E0000000001302
:0407E1000000001301
:0407E2000000001300
:0407E30000000013FF
:0407E40000000013FE
:0407E50000000013FD
:0407E60000000013FC
:0407E70000000013FB
:0407E80000000013FA
:0407E90000000013F9
:0407EA0000000013F8
:0407EB0000000013F7
:0407EC0000000013F6
:0407ED0000000013F5
:0407EE0000000013F4
:0407EF0000000013F3
:0407F00000000013F2
:0407F10000000013F1
:0407F20000000013F0
:0407F30000000013EF
:0407F40000000013EE
:0407F50000000013ED
:0407F60000000013EC
:0407F70000000013EB
:0407F80000000013EA
:0407F90000000013E9
:0407FA0000000013E8
:0407FB0000000013E7
:0407FC0000000013E6
:0407FD0000000013E5
:0407FE0000000013E4
:0407FF0000000013E3
:0408000000000013E1
:0408010000000013E0
:0408020000000013DF
:0408030000000013DE
:0408040000000013DD
:0408050000000013DC
:0408060000000013DB
:0408070000000013DA
:0408080000000013D9
:0408090000000013D8
:04080A0000000013D7
:04080B0000000013D6
:04080C0000000013D5
:04080D0000000013D4
:04080E0000000013D3
:04080F0000000013D2
:0408100000000013D1
:0408110000000013D0
:0408120000000013CF
:0408130000000013CE
:0408140000000013CD
:0408150000000013CC
:0408160000000013CB
:0408170000000013CA
:0408180000000013C9
:0408190000000013C8
:04081A0000000013C7
:04081B0000000013C6
:04081C0000000013C5
:04081D0000000013C4
:04081E0000000013C3
:04081F0000000013C2
:0408200000000013C1
:0408210000000013C0
:0408220000000013BF
:0408230000000013BE
:0408240000000013BD
:0408250000000013BC
:0408260000000013BB
:0408270000000013BA
:0408280000000013B9
:0408290000000013B8
:04082A0000000013B7
:04082B0000000013B6
:04082C0000000013B5
:04082D0000000013B4
:04082E0000000013B3
:04082F0000000013B2
:0408300000000013B1
:0408310000000013B0
:0408320000000013AF
:0408330000000013AE
:0408340000000013AD
:0408350000000013AC
:0408360000000013AB
:0408370000000013AA
:0408380000000013A9
:0408390000000013A8
:04083A0000000013A7
:04083B0000000013A6
:04083C0000000013A5
:04083D0000000013A4
:04083E0000000013A3
:04083F0000000013A2
:0408400000000013A1
:0408410000000013A0
:04084200000000139F
:04084300000000139E
:04084400000000139D
:04084500000000139C
:04084600000000139B
:04084700000000139A
:040848000000001399
:040849000000001398
:04084A000000001397
:04084B000000001396
:04084C000000001395
:04084D000000001394
:04084E000000001393
:04084F000000001392
:040850000000001391
:040851000000001390
:04085200000000138F
:04085300000000138E
:04085400000000138D
:04085500000000138C
:04085600000000138B
:04085700000000138A
:040858000000001389
:040859000000001388
:04085A000000001387
:04085B000000001386
:04085C000000001385
:04085D000000001384
:04085E000000001383
:04085F000000001382
:040860000000001381
:040861000000001380
:04086200000000137F
:04086300000000137E
:04086400000000137D
:04086500000000137C
:04086600000000137B
:04086700000000137A
:040868000000001379
:040869000000001378
:04086A000000001377
:04086B000000001376
:04086C000000001375
:04086D000000001374
:04086E000000001373
:04086F000000001372
:040870000000001371
:040871000000001370
:04087200000000136F
:04087300000000136E
:04087400000000136D
:04087500000000136C
:04087600000000136B
:04087700000000136A
:040878000000001369
:040879000000001368
:04087A000000001367
:04087B000000001366
:04087C000000001365
:04087D000000001364
:04087E000000001363
:04087F000000001362
:040880000000001361
:040881000000001360
:04088200000000135F
:04088300000000135E
:04088400000000135D
:04088500000000135C
:04088600000000135B
:04088700000000135A
:040888000000001359
:040889000000001358
:04088A000000001357
:04088B000000001356
:04088C000000001355
:04088D000000001354
:04088E000000001353
:04088F000000001352
:040890000000001351
:040891000000001350
:04089200000000134F
:04089300000000134E
:04089400000000134D
:04089500000000134C
:04089600000000134B
:04089700000000134A
:040898000000001349
:040899000000001348
:04089A000000001347
:04089B000000001346
:04089C000000001345
:04089D000000001344
:04089E000000001343
:04089F000000001342
:0408A0000000001341
:0408A1000000001340
:0408A200000000133F
:0408A300000000133E
:0408A400000000133D
:0408A500000000133C
:0408A600000000133B
:0408A700000000133A
:0408A8000000001339
:0408A9000000001338
:0408AA000000001337
:0408AB000000001336
:0408AC000000001335
:0408AD000000001334
:0408AE000000001333
:0408AF000000001332
:0408B0000000001331
:0408B1000000001330
:0408B200000000132F
:0408B300000000132E
:0408B400000000132D
:0408B500000000132C
:0408B600000000132B
:0408B700000000132A
:0408B8000000001329
:0408B9000000001328
:0408BA000000001327
:0408BB000000001326
:0408BC000000001325
:0408BD000000001324
:0408BE000000001323
:0408BF000000001322
:0408C0000000001321
:0408C1000000001320
:0408C200000000131F
:0408C300000000131E
:0408C400000000131D
:0408C500000000131C
:0408C600000000131B
:0408C700000000131A
:0408C8000000001319
:0408C9000000001318
:0408CA000000001317
:0408CB000000001316
:0408CC000000001315
:0408CD000000001314
:0408CE000000001313
:0408CF000000001312
:0408D0000000001311
:0408D1000000001310
:0408D200000000130F
:0408D300000000130E
:0408D400000000130D
:0408D500000000130C
:0408D600000000130B
:0408D700000000130A
:0408D8000000001309
:0408D9000000001308
:0408DA000000001307
:0408DB000000001306
:0408DC000000001305
:0408DD000000001304
:0408DE000000001303
:0408DF000000001302
:0408E0000000001301
:0408E1000000001300
:0408E20000000013FF
:0408E30000000013FE
:0408E40000000013FD
:0408E50000000013FC
:0408E60000000013FB
:0408E70000000013FA
:0408E80000000013F9
:0408E90000000013F8
:0408EA0000000013F7
:0408EB0000000013F6
:0408EC0000000013F5
:0408ED0000000013F4
:0408EE0000000013F3
:0408EF0000000013F2
:0408F00000000013F1
:0408F10000000013F0
:0408F20000000013EF
:0408F30000000013EE
:0408F40000000013ED
:0408F50000000013EC
:0408F60000000013EB
:0408F70000000013EA
:0408F80000000013E9
:0408F90000000013E8
:0408FA0000000013E7
:0408FB0000000013E6
:0408FC0000000013E5
:0408FD0000000013E4
:0408FE0000000013E3
:0408FF0000000013E2
:0409000000000013E0
:0409010000000013DF
:0409020000000013DE
:0409030000000013DD
:0409040000000013DC
:0409050000000013DB
:0409060000000013DA
:0409070000000013D9
:0409080000000013D8
:0409090000000013D7
:04090A0000000013D6
:04090B0000000013D5
:04090C0000000013D4
:04090D0000000013D3
:04090E0000000013D2
:04090F0000000013D1
:0409100000000013D0
:0409110000000013CF
:0409120000000013CE
:0409130000000013CD
:0409140000000013CC
:0409150000000013CB
:0409160000000013CA
:0409170000000013C9
:0409180000000013C8
:0409190000000013C7
:04091A0000000013C6
:04091B0000000013C5
:04091C0000000013C4
:04091D0000000013C3
:04091E0000000013C2
:04091F0000000013C1
:0409200000000013C0
:0409210000000013BF
:0409220000000013BE
:0409230000000013BD
:0409240000000013BC
:0409250000000013BB
:0409260000000013BA
:0409270000000013B9
:0409280000000013B8
:0409290000000013B7
:04092A0000000013B6
:04092B0000000013B5
:04092C0000000013B4
:04092D0000000013B3
:04092E0000000013B2
:04092F0000000013B1
:0409300000000013B0
:0409310000000013AF
:0409320000000013AE
:0409330000000013AD
:0409340000000013AC
:0409350000000013AB
:0409360000000013AA
:0409370000000013A9
:0409380000000013A8
:0409390000000013A7
:04093A0000000013A6
:04093B0000000013A5
:04093C0000000013A4
:04093D0000000013A3
:04093E0000000013A2
:04093F0000000013A1
:0409400000000013A0
:04094100000000139F
:04094200000000139E
:04094300000000139D
:04094400000000139C
:04094500000000139B
:04094600000000139A
:040947000000001399
:040948000000001398
:040949000000001397
:04094A000000001396
:04094B000000001395
:04094C000000001394
:04094D000000001393
:04094E000000001392
:04094F000000001391
:040950000000001390
:04095100000000138F
:04095200000000138E
:04095300000000138D
:04095400000000138C
:04095500000000138B
:04095600000000138A
:040957000000001389
:040958000000001388
:040959000000001387
:04095A000000001386
:04095B000000001385
:04095C000000001384
:04095D000000001383
:04095E000000001382
:04095F000000001381
:040960000000001380
:04096100000000137F
:04096200000000137E
:04096300000000137D
:04096400000000137C
:04096500000000137B
:04096600000000137A
:040967000000001379
:040968000000001378
:040969000000001377
:04096A000000001376
:04096B000000001375
:04096C000000001374
:04096D000000001373
:04096E000000001372
:04096F000000001371
:040970000000001370
:04097100000000136F
:04097200000000136E
:04097300000000136D
:04097400000000136C
:04097500000000136B
:04097600000000136A
:040977000000001369
:040978000000001368
:040979000000001367
:04097A000000001366
:04097B000000001365
:04097C000000001364
:04097D000000001363
:04097E000000001362
:04097F000000001361
:040980000000001360
:04098100000000135F
:04098200000000135E
:04098300000000135D
:04098400000000135C
:04098500000000135B
:04098600000000135A
:040987000000001359
:040988000000001358
:040989000000001357
:04098A000000001356
:04098B000000001355
:04098C000000001354
:04098D000000001353
:04098E000000001352
:04098F000000001351
:040990000000001350
:04099100000000134F
:04099200000000134E
:04099300000000134D
:04099400000000134C
:04099500000000134B
:04099600000000134A
:040997000000001349
:040998000000001348
:040999000000001347
:04099A000000001346
:04099B000000001345
:04099C000000001344
:04099D000000001343
:04099E000000001342
:04099F000000001341
:0409A0000000001340
:0409A100000000133F
:0409A200000000133E
:0409A300000000133D
:0409A400000000133C
:0409A500000000133B
:0409A600000000133A
:0409A7000000001339
:0409A8000000001338
:0409A9000000001337
:0409AA000000001336
:0409AB000000001335
:0409AC000000001334
:0409AD000000001333
:0409AE000000001332
:0409AF000000001331
:0409B0000000001330
:0409B100000000132F
:0409B200000000132E
:0409B300000000132D
:0409B400000000132C
:0409B500000000132B
:0409B600000000132A
:0409B7000000001329
:0409B8000000001328
:0409B9000000001327
:0409BA000000001326
:0409BB000000001325
:0409BC000000001324
:0409BD000000001323
:0409BE000000001322
:0409BF000000001321
:0409C0000000001320
:0409C100000000131F
:0409C200000000131E
:0409C300000000131D
:0409C400000000131C
:0409C500000000131B
:0409C600000000131A
:0409C7000000001319
:0409C8000000001318
:0409C9000000001317
:0409CA000000001316
:0409CB000000001315
:0409CC000000001314
:0409CD000000001313
:0409CE000000001312
:0409CF000000001311
:0409D0000000001310
:0409D100000000130F
:0409D200000000130E
:0409D300000000130D
:0409D400000000130C
:0409D500000000130B
:0409D600000000130A
:0409D7000000001309
:0409D8000000001308
:0409D9000000001307
:0409DA000000001306
:0409DB000000001305
:0409DC000000001304
:0409DD000000001303
:0409DE000000001302
:0409DF000000001301
:0409E0000000001300
:0409E10000000013FF
:0409E20000000013FE
:0409E30000000013FD
:0409E40000000013FC
:0409E50000000013FB
:0409E60000000013FA
:0409E70000000013F9
:0409E80000000013F8
:0409E90000000013F7
:0409EA0000000013F6
:0409EB0000000013F5
:0409EC0000000013F4
:0409ED0000000013F3
:0409EE0000000013F2
:0409EF0000000013F1
:0409F00000000013F0
:0409F10000000013EF
:0409F20000000013EE
:0409F30000000013ED
:0409F40000000013EC
:0409F50000000013EB
:0409F60000000013EA
:0409F70000000013E9
:0409F80000000013E8
:0409F90000000013E7
:0409FA0000000013E6
:0409FB0000000013E5
:0409FC0000000013E4
:0409FD0000000013E3
:0409FE0000000013E2
:0409FF0000000013E1
:040A000000000013DF
:040A010000000013DE
:040A020000000013DD
:040A030000000013DC
:040A040000000013DB
:040A050000000013DA
:040A060000000013D9
:040A070000000013D8
:040A080000000013D7
:040A090000000013D6
:040A0A0000000013D5
:040A0B0000000013D4
:040A0C0000000013D3
:040A0D0000000013D2
:040A0E0000000013D1
:040A0F0000000013D0
:040A100000000013CF
:040A110000000013CE
:040A120000000013CD
:040A130000000013CC
:040A140000000013CB
:040A150000000013CA
:040A160000000013C9
:040A170000000013C8
:040A180000000013C7
:040A190000000013C6
:040A1A0000000013C5
:040A1B0000000013C4
:040A1C0000000013C3
:040A1D0000000013C2
:040A1E0000000013C1
:040A1F0000000013C0
:040A200000000013BF
:040A210000000013BE
:040A220000000013BD
:040A230000000013BC
:040A240000000013BB
:040A250000000013BA
:040A260000000013B9
:040A270000000013B8
:040A280000000013B7
:040A290000000013B6
:040A2A0000000013B5
:040A2B0000000013B4
:040A2C0000000013B3
:040A2D0000000013B2
:040A2E0000000013B1
:040A2F0000000013B0
:040A300000000013AF
:040A310000000013AE
:040A320000000013AD
:040A330000000013AC
:040A340000000013AB
:040A350000000013AA
:040A360000000013A9
:040A370000000013A8
:040A380000000013A7
:040A390000000013A6
:040A3A0000000013A5
:040A3B0000000013A4
:040A3C0000000013A3
:040A3D0000000013A2
:040A3E0000000013A1
:040A3F0000000013A0
:040A4000000000139F
:040A4100000000139E
:040A4200000000139D
:040A4300000000139C
:040A4400000000139B
:040A4500000000139A
:040A46000000001399
:040A47000000001398
:040A48000000001397
:040A49000000001396
:040A4A000000001395
:040A4B000000001394
:040A4C000000001393
:040A4D000000001392
:040A4E000000001391
:040A4F000000001390
:040A5000000000138F
:040A5100000000138E
:040A5200000000138D
:040A5300000000138C
:040A5400000000138B
:040A5500000000138A
:040A56000000001389
:040A57000000001388
:040A58000000001387
:040A59000000001386
:040A5A000000001385
:040A5B000000001384
:040A5C000000001383
:040A5D000000001382
:040A5E000000001381
:040A5F000000001380
:040A6000000000137F
:040A6100000000137E
:040A6200000000137D
:040A6300000000137C
:040A6400000000137B
:040A6500000000137A
:040A66000000001379
:040A67000000001378
:040A68000000001377
:040A69000000001376
:040A6A000000001375
:040A6B000000001374
:040A6C000000001373
:040A6D000000001372
:040A6E000000001371
:040A6F000000001370
:040A7000000000136F
:040A7100000000136E
:040A7200000000136D
:040A7300000000136C
:040A7400000000136B
:040A7500000000136A
:040A76000000001369
:040A77000000001368
:040A78000000001367
:040A79000000001366
:040A7A000000001365
:040A7B000000001364
:040A7C000000001363
:040A7D000000001362
:040A7E000000001361
:040A7F000000001360
:040A8000000000135F
:040A8100000000135E
:040A8200000000135D
:040A8300000000135C
:040A8400000000135B
:040A8500000000135A
:040A86000000001359
:040A87000000001358
:040A88000000001357
:040A89000000001356
:040A8A000000001355
:040A8B000000001354
:040A8C000000001353
:040A8D000000001352
:040A8E000000001351
:040A8F000000001350
:040A9000000000134F
:040A9100000000134E
:040A9200000000134D
:040A9300000000134C
:040A9400000000134B
:040A9500000000134A
:040A96000000001349
:040A97000000001348
:040A98000000001347
:040A99000000001346
:040A9A000000001345
:040A9B000000001344
:040A9C000000001343
:040A9D000000001342
:040A9E000000001341
:040A9F000000001340
:040AA000000000133F
:040AA100000000133E
:040AA200000000133D
:040AA300000000133C
:040AA400000000133B
:040AA500000000133A
:040AA6000000001339
:040AA7000000001338
:040AA8000000001337
:040AA9000000001336
:040AAA000000001335
:040AAB000000001334
:040AAC000000001333
:040AAD000000001332
:040AAE000000001331
:040AAF000000001330
:040AB000000000132F
:040AB100000000132E
:040AB200000000132D
:040AB300000000132C
:040AB400000000132B
:040AB500000000132A
:040AB6000000001329
:040AB7000000001328
:040AB8000000001327
:040AB9000000001326
:040ABA000000001325
:040ABB000000001324
:040ABC000000001323
:040ABD000000001322
:040ABE000000001321
:040ABF000000001320
:040AC000000000131F
:040AC100000000131E
:040AC200000000131D
:040AC300000000131C
:040AC400000000131B
:040AC500000000131A
:040AC6000000001319
:040AC7000000001318
:040AC8000000001317
:040AC9000000001316
:040ACA000000001315
:040ACB000000001314
:040ACC000000001313
:040ACD000000001312
:040ACE000000001311
:040ACF000000001310
:040AD000000000130F
:040AD100000000130E
:040AD200000000130D
:040AD300000000130C
:040AD400000000130B
:040AD500000000130A
:040AD6000000001309
:040AD7000000001308
:040AD8000000001307
:040AD9000000001306
:040ADA000000001305
:040ADB000000001304
:040ADC000000001303
:040ADD000000001302
:040ADE000000001301
:040ADF000000001300
:040AE00000000013FF
:040AE10000000013FE
:040AE20000000013FD
:040AE30000000013FC
:040AE40000000013FB
:040AE50000000013FA
:040AE60000000013F9
:040AE70000000013F8
:040AE80000000013F7
:040AE90000000013F6
:040AEA0000000013F5
:040AEB0000000013F4
:040AEC0000000013F3
:040AED0000000013F2
:040AEE0000000013F1
:040AEF0000000013F0
:040AF00000000013EF
:040AF10000000013EE
:040AF20000000013ED
:040AF30000000013EC
:040AF40000000013EB
:040AF50000000013EA
:040AF60000000013E9
:040AF70000000013E8
:040AF80000000013E7
:040AF90000000013E6
:040AFA0000000013E5
:040AFB0000000013E4
:040AFC0000000013E3
:040AFD0000000013E2
:040AFE0000000013E1
:040AFF0000000013E0
:040B000000000013DE
:040B010000000013DD
:040B020000000013DC
:040B030000000013DB
:040B040000000013DA
:040B050000000013D9
:040B060000000013D8
:040B070000000013D7
:040B080000000013D6
:040B090000000013D5
:040B0A0000000013D4
:040B0B0000000013D3
:040B0C0000000013D2
:040B0D0000000013D1
:040B0E0000000013D0
:040B0F0000000013CF
:040B100000000013CE
:040B110000000013CD
:040B120000000013CC
:040B130000000013CB
:040B140000000013CA
:040B150000000013C9
:040B160000000013C8
:040B170000000013C7
:040B180000000013C6
:040B190000000013C5
:040B1A0000000013C4
:040B1B0000000013C3
:040B1C0000000013C2
:040B1D0000000013C1
:040B1E0000000013C0
:040B1F0000000013BF
:040B200000000013BE
:040B210000000013BD
:040B220000000013BC
:040B230000000013BB
:040B240000000013BA
:040B250000000013B9
:040B260000000013B8
:040B270000000013B7
:040B280000000013B6
:040B290000000013B5
:040B2A0000000013B4
:040B2B0000000013B3
:040B2C0000000013B2
:040B2D0000000013B1
:040B2E0000000013B0
:040B2F0000000013AF
:040B300000000013AE
:040B310000000013AD
:040B320000000013AC
:040B330000000013AB
:040B340000000013AA
:040B350000000013A9
:040B360000000013A8
:040B370000000013A7
:040B380000000013A6
:040B390000000013A5
:040B3A0000000013A4
:040B3B0000000013A3
:040B3C0000000013A2
:040B3D0000000013A1
:040B3E0000000013A0
:040B3F00000000139F
:040B4000000000139E
:040B4100000000139D
:040B4200000000139C
:040B4300000000139B
:040B4400000000139A
:040B45000000001399
:040B46000000001398
:040B47000000001397
:040B48000000001396
:040B49000000001395
:040B4A000000001394
:040B4B000000001393
:040B4C000000001392
:040B4D000000001391
:040B4E000000001390
:040B4F00000000138F
:040B5000000000138E
:040B5100000000138D
:040B5200000000138C
:040B5300000000138B
:040B5400000000138A
:040B55000000001389
:040B56000000001388
:040B57000000001387
:040B58000000001386
:040B59000000001385
:040B5A000000001384
:040B5B000000001383
:040B5C000000001382
:040B5D000000001381
:040B5E000000001380
:040B5F00000000137F
:040B6000000000137E
:040B6100000000137D
:040B6200000000137C
:040B6300000000137B
:040B6400000000137A
:040B65000000001379
:040B66000000001378
:040B67000000001377
:040B68000000001376
:040B69000000001375
:040B6A000000001374
:040B6B000000001373
:040B6C000000001372
:040B6D000000001371
:040B6E000000001370
:040B6F00000000136F
:040B7000000000136E
:040B7100000000136D
:040B7200000000136C
:040B7300000000136B
:040B7400000000136A
:040B75000000001369
:040B76000000001368
:040B77000000001367
:040B78000000001366
:040B79000000001365
:040B7A000000001364
:040B7B000000001363
:040B7C000000001362
:040B7D000000001361
:040B7E000000001360
:040B7F00000000135F
:040B8000000000135E
:040B8100000000135D
:040B8200000000135C
:040B8300000000135B
:040B8400000000135A
:040B85000000001359
:040B86000000001358
:040B87000000001357
:040B88000000001356
:040B89000000001355
:040B8A000000001354
:040B8B000000001353
:040B8C000000001352
:040B8D000000001351
:040B8E000000001350
:040B8F00000000134F
:040B9000000000134E
:040B9100000000134D
:040B9200000000134C
:040B9300000000134B
:040B9400000000134A
:040B95000000001349
:040B96000000001348
:040B97000000001347
:040B98000000001346
:040B99000000001345
:040B9A000000001344
:040B9B000000001343
:040B9C000000001342
:040B9D000000001341
:040B9E000000001340
:040B9F00000000133F
:040BA000000000133E
:040BA100000000133D
:040BA200000000133C
:040BA300000000133B
:040BA400000000133A
:040BA5000000001339
:040BA6000000001338
:040BA7000000001337
:040BA8000000001336
:040BA9000000001335
:040BAA000000001334
:040BAB000000001333
:040BAC000000001332
:040BAD000000001331
:040BAE000000001330
:040BAF00000000132F
:040BB000000000132E
:040BB100000000132D
:040BB200000000132C
:040BB300000000132B
:040BB400000000132A
:040BB5000000001329
:040BB6000000001328
:040BB7000000001327
:040BB8000000001326
:040BB9000000001325
:040BBA000000001324
:040BBB000000001323
:040BBC000000001322
:040BBD000000001321
:040BBE000000001320
:040BBF00000000131F
:040BC000000000131E
:040BC100000000131D
:040BC200000000131C
:040BC300000000131B
:040BC400000000131A
:040BC5000000001319
:040BC6000000001318
:040BC7000000001317
:040BC8000000001316
:040BC9000000001315
:040BCA000000001314
:040BCB000000001313
:040BCC000000001312
:040BCD000000001311
:040BCE000000001310
:040BCF00000000130F
:040BD000000000130E
:040BD100000000130D
:040BD200000000130C
:040BD300000000130B
:040BD400000000130A
:040BD5000000001309
:040BD6000000001308
:040BD7000000001307
:040BD8000000001306
:040BD9000000001305
:040BDA000000001304
:040BDB000000001303
:040BDC000000001302
:040BDD000000001301
:040BDE000000001300
:040BDF0000000013FF
:040BE00000000013FE
:040BE10000000013FD
:040BE20000000013FC
:040BE30000000013FB
:040BE40000000013FA
:040BE50000000013F9
:040BE60000000013F8
:040BE70000000013F7
:040BE80000000013F6
:040BE90000000013F5
:040BEA0000000013F4
:040BEB0000000013F3
:040BEC0000000013F2
:040BED0000000013F1
:040BEE0000000013F0
:040BEF0000000013EF
:040BF00000000013EE
:040BF10000000013ED
:040BF20000000013EC
:040BF30000000013EB
:040BF40000000013EA
:040BF50000000013E9
:040BF60000000013E8
:040BF70000000013E7
:040BF80000000013E6
:040BF90000000013E5
:040BFA0000000013E4
:040BFB0000000013E3
:040BFC0000000013E2
:040BFD0000000013E1
:040BFE0000000013E0
:040BFF0000000013DF
:040C000000000013DD
:040C010000000013DC
:040C020000000013DB
:040C030000000013DA
:040C040000000013D9
:040C050000000013D8
:040C060000000013D7
:040C070000000013D6
:040C080000000013D5
:040C090000000013D4
:040C0A0000000013D3
:040C0B0000000013D2
:040C0C0000000013D1
:040C0D0000000013D0
:040C0E0000000013CF
:040C0F0000000013CE
:040C100000000013CD
:040C110000000013CC
:040C120000000013CB
:040C130000000013CA
:040C140000000013C9
:040C150000000013C8
:040C160000000013C7
:040C170000000013C6
:040C180000000013C5
:040C190000000013C4
:040C1A0000000013C3
:040C1B0000000013C2
:040C1C0000000013C1
:040C1D0000000013C0
:040C1E0000000013BF
:040C1F0000000013BE
:040C200000000013BD
:040C210000000013BC
:040C220000000013BB
:040C230000000013BA
:040C240000000013B9
:040C250000000013B8
:040C260000000013B7
:040C270000000013B6
:040C280000000013B5
:040C290000000013B4
:040C2A0000000013B3
:040C2B0000000013B2
:040C2C0000000013B1
:040C2D0000000013B0
:040C2E0000000013AF
:040C2F0000000013AE
:040C300000000013AD
:040C310000000013AC
:040C320000000013AB
:040C330000000013AA
:040C340000000013A9
:040C350000000013A8
:040C360000000013A7
:040C370000000013A6
:040C380000000013A5
:040C390000000013A4
:040C3A0000000013A3
:040C3B0000000013A2
:040C3C0000000013A1
:040C3D0000000013A0
:040C3E00000000139F
:040C3F00000000139E
:040C4000000000139D
:040C4100000000139C
:040C4200000000139B
:040C4300000000139A
:040C44000000001399
:040C45000000001398
:040C46000000001397
:040C47000000001396
:040C48000000001395
:040C49000000001394
:040C4A000000001393
:040C4B000000001392
:040C4C000000001391
:040C4D000000001390
:040C4E00000000138F
:040C4F00000000138E
:040C5000000000138D
:040C5100000000138C
:040C5200000000138B
:040C5300000000138A
:040C54000000001389
:040C55000000001388
:040C56000000001387
:040C57000000001386
:040C58000000001385
:040C59000000001384
:040C5A000000001383
:040C5B000000001382
:040C5C000000001381
:040C5D000000001380
:040C5E00000000137F
:040C5F00000000137E
:040C6000000000137D
:040C6100000000137C
:040C6200000000137B
:040C6300000000137A
:040C64000000001379
:040C65000000001378
:040C66000000001377
:040C67000000001376
:040C68000000001375
:040C69000000001374
:040C6A000000001373
:040C6B000000001372
:040C6C000000001371
:040C6D000000001370
:040C6E00000000136F
:040C6F00000000136E
:040C7000000000136D
:040C7100000000136C
:040C7200000000136B
:040C7300000000136A
:040C74000000001369
:040C75000000001368
:040C76000000001367
:040C77000000001366
:040C78000000001365
:040C79000000001364
:040C7A000000001363
:040C7B000000001362
:040C7C000000001361
:040C7D000000001360
:040C7E00000000135F
:040C7F00000000135E
